:100000000C9434000C9451000C9451000C94510049
:100010000C9451000C9451000C9451000C9451001C
:100020000C9451000C9451000C9451000C9451000C
:100030000C9451000C9451000C9451000C945100FC
:100040000C9451000C9451000C9451000C945100EC
:100050000C9451000C9451000C9451000C945100DC
:100060000C9451000C94510011241FBECFEFD8E026
:10007000DEBFCDBF13E0A0E0B1E0EEE4F9E002C0E6
:1000800005900D92A032B107D9F723E0A0E2B3E0CA
:1000900001C01D92A432B207E1F70E94E7010C945F
:1000A000A5040C94000014B88CE385B98FE18AB9DB
:1000B0001BB80895CF92DF92EF92FF926B017C0103
:1000C00020E030E0A901C701B6010E94A60318167E
:1000D0008CF489EF90E00197F1F700C0000020E078
:1000E00030E040E85FE3C701B6010E9403026B0104
:1000F0007C01E6CFFF90EF90DF90CF9008954F9274
:100100005F926F927F928F929F92AF92BF92CF92A7
:10011000DF92EF92FF924B015C0160E070E080E8BB
:100120009FE30E94700220E030E04AE754E40E941E
:10013000AB036B017C019B01AC01C501B4010E94C2
:1001400070020E94E2022B013C0120E030E040E01E
:100150005FE3C701B6010E94AB034B015C018AB1AA
:1001600081608AB9C12CD12C7601C414D504E6046F
:10017000F704A4F4C501B4010E945A008BB1816058
:100180008BB9C501B4010E945A008BB18E7F8BB927
:100190008FEFC81AD80AE80AF80AE7CFFF90EF9065
:1001A000DF90CF90BF90AF909F908F907F906F9097
:1001B0005F904F9008952F923F924F925F926F926F
:1001C0007F928F929F92AF92BF92CF92DF92EF92E7
:1001D000FF920F931F93CF93DF937C01FC01C080AC
:1001E000D18022813381032E000C440B550B60E833
:1001F00079EA83E090E00E945004190102E010E0E7
:10020000812C912C5401C601880F991F08171907DA
:100210000CF09DC0E801F8013196EE0FFF1FEE0DC6
:10022000FF1D608171811616170664F4C1010E94DA
:100230003C04072E000C880B990B0E941A034B01FB
:100240005C011BC07723CCF49B01772324F4222785
:100250003327261B370BC101B9010E943C04072E2E
:10026000000C880B990B0E941A0320E030E040EC50
:100270005FE30E94AB034B015C011B9909C0109224
:1002800021031092200310922303109222035FC0D7
:100290001A9908C08091220390912303039724F0B8
:1002A00080E003C080E001C081E0882399F0809164
:1002B00022039091230301969093230380932203BA
:1002C00060E070E48CE995E40E945A00C7010E9446
:1002D000DB0015C01A9908C0209122033091230336
:1002E0002330310509F481E0882349F0109223037B
:1002F00010922203109221031092200328C0CC0FE9
:10030000DD1FCE0DDF1D68817981072E000C880B63
:10031000990B0E941A032B013C0126E636E646E6BD
:100320005FE3C501B4010E94AB03A30192010E94E7
:100330007F00C501B4010E945A0020E030E0A9010D
:10034000C501B4010E947F000E5F1F4F5CCF8091FA
:1003500022039091230383309105B0F42091200370
:10036000309121032130310579F4019690932303D4
:100370008093220360E070E48CE995E40E945A00C7
:10038000C7010E94DB0010C0039771F48091200325
:1003900090912103019741F41092210310922003C0
:1003A0001092230310922203DF91CF911F910F919E
:1003B000FF90EF90DF90CF90BF90AF909F908F9085
:1003C0007F906F905F904F903F902F9008950E9484
:1003D00053001D990BC081E090E09093210380931E
:1003E000200384E592E00E94DB00F3CF1C99F1CF5B
:1003F00081E090E0909321038093200380E091E0DE
:100400000E94DB00E6CF5058BB27AA270E941B02A0
:100410000C946C030E945E0338F00E94650320F088
:1004200039F49F3F19F426F40C945B030EF4E09525
:10043000E7FB0C945503E92F0E947D0358F3BA178C
:10044000620773078407950720F079F4A6F50C94EA
:100450009F030EF4E0950B2EBA2FA02D0B01B901CE
:1004600090010C01CA01A0011124FF27591B99F02A
:10047000593F50F4503E68F11A16F040A22F232F36
:10048000342F4427585FF3CF469537952795A79586
:10049000F0405395C9F77EF41F16BA0B620B730B2D
:1004A000840BBAF09150A1F0FF0FBB1F661F771F9E
:1004B000881FC2F70EC0BA0F621F731F841F48F453
:1004C000879577956795B795F7959E3F08F0B0CFDC
:1004D0009395880F08F09927EE0F979587950895C3
:1004E0000E9484020C946C030E94650358F00E94E1
:1004F0005E0340F029F45F3F29F00C94550351113D
:100500000C94A0030C945B030E947D0368F3992371
:10051000B1F3552391F3951B550BBB27AA276217FF
:100520007307840738F09F5F5F4F220F331F441F0C
:10053000AA1FA9F335D00E2E3AF0E0E832D0915040
:100540005040E695001CCAF72BD0FE2F29D0660F2D
:10055000771F881FBB1F261737074807AB07B0E870
:1005600009F0BB0B802DBF01FF2793585F4F3AF076
:100570009E3F510578F00C9455030C94A0035F3F07
:10058000E4F3983ED4F3869577956795B795F795FC
:100590009F5FC9F7880F911D9695879597F90895E4
:1005A000E1E0660F771F881FBB1F62177307840780
:1005B000BA0720F0621B730B840BBA0BEE1F88F78F
:1005C000E09508950E94E9026894B1110C94A0038B
:1005D00008950E94850388F09F5798F0B92F9927B6
:1005E000B751B0F0E1F0660F771F881F991F1AF01E
:1005F000BA95C9F714C0B13091F00E949F03B1E0E1
:1006000008950C949F03672F782F8827B85F39F0DF
:10061000B93FCCF3869577956795B395D9F73EF4B6
:1006200090958095709561957F4F8F4F9F4F08955E
:10063000E89409C097FB3EF490958095709561957C
:100640007F4F8F4F9F4F9923A9F0F92F96E9BB2732
:100650009395F695879577956795B795F111F8CFAE
:10066000FAF4BB0F11F460FF1BC06F5F7F4F8F4F19
:100670009F4F16C0882311F096E911C0772321F00F
:100680009EE8872F762F05C0662371F096E8862FA7
:1006900070E060E02AF09A95660F771F881FDAF7FE
:1006A000880F9695879597F9089597F99F6780E841
:1006B00070E060E008959FEF80EC089500240A94B4
:1006C0001616170618060906089500240A9412162D
:1006D0001306140605060895092E0394000C11F460
:1006E000882352F0BB0F40F4BF2B11F460FF04C00D
:1006F0006F5F7F4F8F4F9F4F089557FD9058440F66
:10070000551F59F05F3F71F04795880F97FB991F70
:1007100061F09F3F79F0879508951216130614062D
:10072000551FF2CF4695F1DF08C0161617061806BA
:10073000991FF1CF86957105610508940895E89495
:10074000BB2766277727CB0197F908950E941804E5
:1007500008F48FEF08950E94BE030C946C030E946E
:100760005E0338F00E94650320F0952311F00C948D
:1007700055030C945B0311240C94A0030E947D0389
:1007800070F3959FC1F3950F50E0551F629FF001E4
:10079000729FBB27F00DB11D639FAA27F00DB11DFD
:1007A000AA1F649F6627B00DA11D661F829F222786
:1007B000B00DA11D621F739FB00DA11D621F839F0D
:1007C000A00D611D221F749F3327A00D611D231FE3
:1007D000849F600D211D822F762F6A2F11249F5731
:1007E00050409AF0F1F088234AF0EE0FFF1FBB1F34
:1007F000661F771F881F91505040A9F79E3F5105F3
:1008000080F00C9455030C94A0035F3FE4F3983EF2
:10081000D4F3869577956795B795F795E7959F5F9C
:10082000C1F7FE2B880F911D9695879597F908952E
:10083000990F0008550FAA0BE0E8FEEF16161706F1
:10084000E807F907C0F012161306E407F50798F059
:10085000621B730B840B950B39F40A2661F0232B72
:10086000242B252B21F408950A2609F4A140A695EE
:100870008FEF811D811D089597FB072E16F40094BC
:1008800007D077FD09D00E946F0407FC05D03EF425
:10089000909581959F4F0895709561957F4F08952C
:1008A000052E97FB1EF400940E94670457FD07D0A5
:1008B0000E94830407FC03D04EF40C946704509507
:1008C0004095309521953F4F4F4F5F4F089590953C
:1008D0008095709561957F4F8F4F9F4F0895AA1B0C
:1008E000BB1B51E107C0AA1FBB1FA617B70710F01B
:1008F000A61BB70B881F991F5A95A9F7809590954D
:10090000BC01CD010895A1E21A2EAA1BBB1BFD015B
:100910000DC0AA1FBB1FEE1FFF1FA217B307E407DE
:10092000F50720F0A21BB30BE40BF50B661F771F36
:10093000881F991F1A9469F7609570958095909516
:0E0940009B01AC01BD01CF010895F894FFCFDB
:10094E0054008C005200080052000800A500080058
:10095E0052000800520008009300080052000800E0
:10096E0052000800830008005200080052000800E0
:10097E007500080052000800520008007B000800B5
:10098E00830008005200080052000800A50008006D
:10099E0052000800520008009300080052000800A0
:1009AE0052000800830008005200080052000800A0
:1009BE007500FEFF5200080052000800A500080056
:1009CE005200080052000800930008005200080070
:1009DE005200080083000800520008005200080070
:1009EE007500080052000800520008007B00080045
:1009FE00830008005200080052000800A5000800FD
:100A0E00520008005200080093000800520008002F
:100A1E00520008008300080052000800520008002F
:100A2E007500FEFF5200080052000800A5000800E5
:100A3E0052000800520008009300080052000800FF
:100A4E0052000800830008005200080052000800FF
:100A5E007500080052000800520008007B000800D4
:100A6E00830008005200080052000800A50008008C
:100A7E0052000800520008009300080052000800BF
:100A8E0052000800830008005200080052000800BF
:100A9E007500FEFF3200C80088010800060108003C
:100AAE00370110005D0110008801080006010800E2
:100ABE00370110005D0110008801080006010800D2
:100ACE00370110005D0110008801080006010800C2
:100ADE00370110005D0110008801080006010800B2
:100AEE004A0110005D01100088010800060108008F
:100AFE004A0110005D01100088010800060108007F
:100B0E004A0110005D01100088010800060108006E
:100B1E004A0110005D0110008801FCFF0601FCFF78
:100B2E00370110005D011000880104000601040069
:100B3E00370110005D0110002601FFFF5D01FCFF73
:100B4E00E900FCFF37011000260110005D010400D2
:100B5E00E900FCFF37011000260110000601FFFF1F
:00000001FF
