S0110000426C696E6B204C65642E73726563EE
S11300000C9434000C943E000C943E000C943E007E
S11300100C943E000C943E000C943E000C943E0064
S11300200C943E000C943E000C943E000C943E0054
S11300300C943E000C943E000C943E000C943E0044
S11300400C943E000C943E000C943E000C943E0034
S11300500C943E000C943E000C943E000C943E0024
S11300600C943E000C943E0011241FBECFEFD8E048
S1130070DEBFCDBF0E9440000C9459000C940000D8
S113008081E084B915B881E085B92AEA3AEA8AEAB6
S11300909AE22150304080409040D9F715B82AEABE
S11300A03AEA8AEA9AE22150304080409040D9F7F7
S10900B0EACFF894FFCF33
S9030000FC
