:100000000C9434000C9451000C9451000C94510049
:100010000C9451000C9451000C9451000C9451001C
:100020000C9451000C9451000C9451000C9451000C
:100030000C9451000C9451000C9451000C945100FC
:100040000C9451000C9451000C9451000C945100EC
:100050000C9451000C9451000C9451000C945100DC
:100060000C9451000C94510011241FBECFEFD8E026
:10007000DEBFCDBF11E0A0E0B1E0EAEDF0E002C0EC
:1000800005900D92A030B107D9F721E0A0E0B1E0D2
:1000900001C01D92A030B207E1F70E9453000C94FA
:1000A0006B000C9400008FEF84B98FEF85B92FE3BC
:1000B0008DE093E0215080409040E1F700C00000C7
:1000C00015B82FE38DE093E0215080409040E1F798
:0A00D00000C00000EACFF894FFCF53
:00000001FF
