:020000040000FA
:100000000C9463000C948B000C948B000C948B006C
:100010000C948B000C948B000C948B000C946A064F
:100020000C948B000C948B000C948B000C948B0024
:100030000C948B000C948B000C948B000C948B0014
:100040000C941E070C948B000C94EC060C94C606C2
:100050000C948B000C948B000C948B000C948B00F4
:100060000C948B000C948B000000000024002700EF
:100070002A000000000023002600290000000000E4
:10008000250028002B0004040404040404040202D4
:100090000202020203030303030301020408102007
:1000A0004080010204081020010204081020000012
:1000B0000008000201000003040700000000000027
:1000C00000000200EC0711241FBECFEFD8E0DEBF16
:1000D000CDBF13E0A0E0B1E0EAEAF3E102C0059091
:1000E0000D92A433B107D9F723E0A4E3B3E001C034
:1000F0001D92AF3EB207E1F710E0C3E6D0E004C0C6
:100100002197FE010E94BE09C236D107C9F70E949D
:1001100068070C94D3090C940000FC01538D448DA6
:10012000252F30E0842F90E0821B930B541710F0A2
:10013000CF96089501970895FC01918D828D9817AF
:1001400061F0A28DAE0FBF2FB11D5D968C91928D87
:100150009F5F9F73928F90E008958FEF9FEF0895B8
:10016000FC01918D828D981731F0828DE80FF11D81
:10017000858D90E008958FEF9FEF0895FC01918D9C
:10018000228D892F90E0805C9F4F821B91098F7395
:1001900099270895FC01A48DA80FB92FB11DA35A6A
:1001A000BF4F2C91848D90E001968F739927848F97
:1001B000A689B7892C93A089B1898C9183708064BA
:1001C0008C93938D848D981306C00288F389E02D5B
:1001D00080818F7D80830895EF92FF920F931F930C
:1001E000CF93DF93EC0181E0888F9B8D8C8D9813EA
:1001F0001AC0E889F989808185FF15C09FB7F894F6
:10020000EE89FF896083E889F98980818370806441
:1002100080839FBF81E090E0DF91CF911F910F918C
:10022000FF90EF900895F62E0B8D10E00F5F1F4F9B
:100230000F731127E02E8C8D8E110CC00FB607FCAA
:10024000FACFE889F989808185FFF5CFCE010E9438
:10025000CA00F1CFEB8DEC0FFD2FF11DE35AFF4FDC
:10026000F0829FB7F8940B8FEA89FB8980818062C6
:10027000CFCFCF93DF93EC01888D8823B9F0AA8983
:10028000BB89E889F9898C9185FD03C0808186FD51
:100290000DC00FB607FCF7CF8C9185FFF2CF8081A0
:1002A00085FFEDCFCE010E94CA00E9CFDF91CF914B
:1002B000089582E593E00E94BE0021E0892B09F4B5
:1002C00020E0822F089580E090E0892B29F00E94A1
:1002D000590181110C9400000895AF92BF92CF9202
:1002E000DF92EF92FF920F931F93CF93DF936C01F6
:1002F0007B018B01040F151FEB015E01AE18BF08D7
:10030000C017D10759F06991D601ED91FC91019088
:10031000F081E02DC6010995892B79F7C501DF91A0
:10032000CF911F910F91FF90EF90DF90CF90BF90F2
:10033000AF900895833081F028F4813099F08230B5
:10034000A9F008958730A9F08830C9F08430B1F45D
:10035000809180008F7D03C0809180008F77809393
:100360008000089584B58F7784BD089584B58F7D0E
:10037000FBCF8091B0008F778093B000089580917B
:10038000B0008F7DF9CFCF93DF9390910001891357
:100390000BC0E2ECF0E0E4919FEF90930001E130BC
:1003A00059F138F1E23071F1282F30E0F901E255CE
:1003B000FF4F8491F901E656FF4FD491F901EA57B6
:1003C000FF4FC491CC2391F081110E949A01EC2F30
:1003D000F0E0EE0FFF1FE458FF4FA591B4918FB7E7
:1003E000F894EC91D095DE23DC938FBFDF91CF9111
:1003F000089510926E00D8CF90916F009D7F9093DA
:100400006F00D2CF909170009D7F9093700091E02B
:100410009093B0009091B100987F94609093B10058
:100420001092B300C1CFCF93DF93282F30E0F901B2
:10043000E255FF4F8491F901E656FF4FD491F9013F
:10044000EA57FF4FC491CC23A1F081110E949A0179
:10045000EC2FF0E0EE0FFF1FEE58FF4FA591B49187
:10046000EC91ED2381E090E009F480E0DF91CF9101
:10047000089580E090E0FACFCF93DF9390E0FC0105
:10048000E656FF4F24918A579F4FFC0184918823A1
:10049000D1F090E0880F991FFC01E859FF4FA5911A
:1004A000B491FC01E458FF4FC591D491623071F4CE
:1004B0009FB7F8943C91822F809583238C93E88199
:1004C0002E2B28839FBFDF91CF9108958FB7F8948B
:1004D000EC912E2B2C938FBFF6CF3FB7F8948091E1
:1004E000450390914603A0914703B091480326B578
:1004F000A89B05C02F3F19F00196A11DB11D3FBF5C
:10050000BA2FA92F982F8827BC01CD01620F711D2A
:10051000811D911D42E0660F771F881F991F4A9524
:10052000D1F708958F929F92AF92BF92CF92DF92B0
:10053000EF92FF926B017C010E946D024B015C0106
:10054000C114D104E104F104B9F00E946D026819EC
:1005500079098A099B09683E73408105910580F3FA
:1005600021E0C21AD108E108F10888EE880E83E084
:10057000981EA11CB11CE4CFFF90EF90DF90CF90AC
:10058000BF90AF909F908F9008958F929F92AF925F
:10059000BF920F931F93CF93DF93CDB7DEB7A19791
:1005A0000FB6F894DEBF0FBECDBF19A2423008F4DB
:1005B0004AE08E010F5D1F4F842E912CB12CA12C8F
:1005C000A50194010E945E09E62FB901CA01EA3033
:1005D00044F5E05DD801EE938D01232B242B252BD0
:1005E00079F790E080E0109769F0FD01019000201C
:1005F000E9F73197AF014A1B5B0BBD0182E593E040
:100600000E946D01A1960FB6F894DEBF0FBECDBF5C
:10061000DF91CF911F910F91BF90AF909F908F90DE
:100620000895E95CD7CF2F923F924F925F926F92DD
:100630007F928F929F92AF92BF92CF92DF92EF9272
:10064000FF920F931F93CF93DF93CDB7DEB76397DE
:100650000FB6F894DEBF0FBECDBF9A838983A98100
:10066000BA8112962D913C91032E000C440B550B30
:1006700060E879EA83E090E00E9480093C872B875C
:10068000E981FA81808191819C01220F331F3A8B8D
:10069000298B1F0182E090E09E838D831C821B8248
:1006A000A989BA89ED81FE81EA17FB07ACF5D10172
:1006B0001696CD90DC900D2C000CEE08FF084AE059
:1006C000C701B601F7FE0DC06DE282E593E00E941E
:1006D000EC0066277727CB016C197D098E099F09ED
:1006E0004AE00E94C502F10166817781161617065D
:1006F0007CF58B859C850E944A097C836B8380E115
:100700000E941302892BE9F51092510310925003B5
:1007100010923F0310923E0380913E0390913F035D
:100720008330910508F0ADC2209150033091510300
:100730002130310509F0B5C2019690933F038093B3
:100740003E0368E873E180E090E00E94920287CF68
:1007500061157105A1F27195619571098B859C8573
:100760000E944A09072E000C880B990B0E94510821
:1007700020E030E040EC5FE30E94B5080E941908D9
:10078000BCCF81E10E941302892B09F0F9C080914E
:100790003E0390913F03833091050CF0F1C0019628
:1007A00090933F0380933E0368E873E180E090E01C
:1007B0000E94920289819A810E9413038B819C81FD
:1007C000092E000CAA0BBB0B8D879E87AF87B88BB9
:1007D000BC01CD010E94510826E636E646E65FE3FD
:1007E0000E94B5080E9420082B013C01D1011496FB
:1007F0000D911C9180910001873009F0D7C0E2EC87
:10080000F0E0F491FB8BF7FDBCC161E087E00E9452
:100810003C02FB89FF2321F02B89223009F0C6C15D
:100820004801B12CA12C60E072E18AE790E0A501BB
:1008300098010E9480092F83388749875A87690168
:100840007A0131E0C31AD108E108F1088FEFC81628
:10085000D104E104F10409F00CF46BC160E472E42A
:100860008FE090E0A50198010E94800969017A015A
:1008700091E0C91AD108E108F108AB89A23009F06A
:100880000CC182E0BFEFCB16D104E104F10409F002
:100890000CF46FC060E970ED83E090E0A501980171
:1008A0000E94800969017A01E1E0CE1AD108E108CD
:1008B000F10883E0FFEFCF16D104E104F10409F061
:1008C0000CF457C068E478EE81E090E0A50198014F
:1008D0000E94800969017A01B1E0CB1AD108E108D0
:1008E000F10884E0EFEFCE16D104E104F10409F041
:1008F0000CF43FC064E274EF80E090E0A501940145
:100900000E94800969017A01A1E0CA1AD108E108B0
:10091000F10885E0AFEFCA16D104E104F10449F112
:1009200040F162E17AE780E090E0A50194010E9445
:10093000800969017A0181E0C81AD108E108F1084B
:1009400086E09FEFC916D104E104F10491F088F02C
:10095000CF80D884E984FA848AE0F594E794D79428
:10096000C7948A95D1F7A1E0CA1AD108E108F10825
:1009700087E09091B100987F892B8093B100E1C00E
:1009800081E10E941302892B09F018CF80913E0368
:1009900090913F03039709F011CF10923F031092FB
:1009A0003E031092510310925003B6CE8F3F09F0D0
:1009B000E8C087E080930001E2ECF0E0F491FB8B6B
:1009C000FF3F09F4DEC0F13031F158F0F23009F4A4
:1009D00041C08B8987FDD5C061E087E00E943C0261
:1009E0001BCF14BC15BC84B5826084BD85B5816005
:1009F00085BDEDE8F0E08491E82FF0E0EE0FFF1FF9
:100A0000E458FF4F85919491E1EAF0E0849180935E
:100A100035031B8AFACE10928000109281008091DB
:100A20008100886080938100809181008160809343
:100A30008100EDE8F0E08491E82FF0E0EE0FFF1F79
:100A4000E458FF4F85919491E1EAF0E0849180931E
:100A50003403DBCE1092B0001092B1008091B00050
:100A600082608093B0008091B10081608093B1007A
:100A7000EDE8F0E08491E82FF0E0EE0FFF1FE4587E
:100A8000FF4F8591949190934A0380934903E1EA43
:100A9000F0E0849180934B03B8CE2FEFC216D104BF
:100AA000E104F10409F00CF47FC068E478EE81E021
:100AB00090E0A50198010E94800969017A0181E016
:100AC000C81AD108E108F1089B8984E0911122CF6E
:100AD00083E0FFEFCF16D104E104F10471F16CF172
:100AE00062E17AE780E090E0A50194010E9480092C
:100AF00069017A01B1E0CB1AD108E108F10884E07C
:100B0000EFEFCE16D104E104F104B9F0B0F0CF80DC
:100B1000D884E984FA849AE0F594E794D794C7944A
:100B20009A95D1F791E0C91AD108E108F10885E05A
:100B300004C081E0FB89F1111CCF95B5987F892B0A
:100B400085BD2FEF3FEFA9014114510461047104E9
:100B500009F056C0EB89E13009F471C0E23009F4C4
:100B600080C0E1110EC0C7BC20933A0330933B0311
:100B700040933C0350933D0380916E0082608093CC
:100B80006E006D857E858F8598890E94920287E030
:100B90000E94C3012D813E812E5F3F4F3E832D83F6
:100BA00034E0230E311C7CCD82E0C4CFB12CA12CCB
:100BB00060E072E18AE790E0A50198010E94800957
:100BC00069017A0181E0C81AD108E108F108C1146D
:100BD000D10491E0E906F1040CF591E0BB89B13054
:100BE00009F0AFCF80918100887F892B80938100AD
:100BF0002FEF3FEFA9014114510461047104F9F092
:100C0000D801AA0FBB1FA30192010E949F0928EEE1
:100C100033E040E050E00E945E099CCF68E478EE4B
:100C200081E090E0A50198010E94800969017A01A4
:100C3000A1E0CA1AD108E108F10893E0CFCFD09221
:100C40008900C09288002093360330933703409385
:100C500038035093390380916F00826080936F0056
:100C600090CFC092B30020934C0330934D03409338
:100C70004E0350934F038091700082608093700008
:100C800080CF039771F480915003909151030197A5
:100C900041F4109251031092500310923F031092AE
:100CA0003E0363960FB6F894DEBF0FBECDBFDF9153
:100CB000CF911F910F91FF90EF90DF90CF90BF9059
:100CC000AF909F908F907F906F905F904F903F90EC
:100CD0002F9008951F920F920FB60F9211242F9309
:100CE0003F934F935F936F937F938F939F93AF93B4
:100CF000BF93EF93FF9380914C0390914D03A0918C
:100D00004E03B0914F03892B8A2B8B2BD1F19091FD
:100D10004B03E0914903F0914A0380818927808346
:100D200080914C0390914D03A0914E03B0914F03DD
:100D3000181619061A061B069CF480914C03909114
:100D40004D03A0914E03B0914F030197A109B10942
:100D500080934C0390934D03A0934E03B0934F03A5
:100D6000FF91EF91BF91AF919F918F917F916F9183
:100D70005F914F913F912F910F900FBE0F901F9059
:100D80001895809100010E94C301EACF1F920F9233
:100D90000FB60F9211242F933F934F935F936F934E
:100DA0007F938F939F93AF93BF93EF93FF9382E5CE
:100DB00093E00E94CA00FF91EF91BF91AF919F9184
:100DC0008F917F916F915F914F913F912F910F90F4
:100DD0000FBE0F901F9018951F920F920FB60F9293
:100DE00011242F938F939F93EF93FF93E0916203CE
:100DF000F09163038081E0916803F091690382FDC3
:100E00001BC0908180916B038F5F8F7320916C0367
:100E1000821741F0E0916B03F0E0EE5AFC4F958FA2
:100E200080936B03FF91EF919F918F912F910F9082
:100E30000FBE0F901F9018958081F4CF1F920F92D4
:100E40000FB60F9211242F933F938F939F93AF93DD
:100E5000BF938091410390914203A0914303B091CD
:100E600044033091400323E0230F2D3758F50196BA
:100E7000A11DB11D20934003809341039093420331
:100E8000A0934303B093440380914503909146039C
:100E9000A0914703B09148030196A11DB11D809315
:100EA000450390934603A0934703B0934803BF9133
:100EB000AF919F918F913F912F910F900FBE0F9007
:100EC0001F90189526E8230F0296A11DB11DD2CFC1
:100ED000789484B5826084BD84B5816084BD85B515
:100EE000826085BD85B5816085BD80916E00816021
:100EF00080936E00109281008091810082608093C7
:100F000081008091810081608093810080918000C8
:100F10008160809380008091B10084608093B100F3
:100F20008091B00081608093B00080917A008460ED
:100F300080937A0080917A00826080937A00809119
:100F40007A00816080937A0080917A008068809333
:100F50007A001092C10062E08EE00E943C0262E0E2
:100F60008FE00E943C0262E080E10E943C0262E06D
:100F700081E10E943C0261E087E00E943C0200E0C7
:100F800010E0C1E0D0E08EE00E941302892B91F4C2
:100F9000D0935103C093500385E592E00E94130360
:100FA0000115110581F30E945901882361F30E9404
:100FB0000000E9CF8FE00E9413022091500330918E
:100FC0005103822B932B892B59F7D0935103C09354
:100FD000500381E091E0E2CFE2E5F3E01382128278
:100FE00088EE93E0A0E0B0E084839583A683B78386
:100FF00085E293E09183808385EC90E095878487F8
:1010000084EC90E09787868780EC90E0918B808BD2
:1010100081EC90E0938B828B82EC90E0958B848BBB
:1010200086EC90E0978B868B118E128E138E148E29
:1010300008950E9420086894B1110C94AF08089597
:101040000E94940888F09F5798F0B92F9927B751BC
:10105000B0F0E1F0660F771F881F991F1AF0BA955C
:10106000C9F714C0B13091F00E94AE08B1E0089504
:101070000C94AE08672F782F8827B85F39F0B93FF6
:10108000CCF3869577956795B395D9F73EF490950F
:101090008095709561957F4F8F4F9F4F0895E8948D
:1010A00009C097FB3EF490958095709561957F4FB0
:1010B0008F4F9F4F9923A9F0F92F96E9BB2793955E
:1010C000F695879577956795B795F111F8CFFAF46E
:1010D000BB0F11F460FF1BC06F5F7F4F8F4F9F4F9F
:1010E00016C0882311F096E911C0772321F09EE8FD
:1010F000872F762F05C0662371F096E8862F70E063
:1011000060E02AF09A95660F771F881FDAF7880F3C
:101110009695879597F9089557FD9058440F551F58
:1011200059F05F3F71F04795880F97FB991F61F069
:101130009F3F79F087950895121613061406551FE0
:10114000F2CF4695F1DF08C0161617061806991F4C
:10115000F1CF86957105610508940895E894BB2741
:1011600066277727CB0197F908950E94C8080C9449
:1011700039090E942B0938F00E94320920F095238A
:1011800011F00C9422090C94280911240C94AF0836
:101190000E948C0870F3959FC1F3950F50E0551F86
:1011A000629FF001729FBB27F00DB11D639FAA27BC
:1011B000F00DB11DAA1F649F6627B00DA11D661F0B
:1011C000829F2227B00DA11D621F739FB00DA11D2C
:1011D000621F839FA00D611D221F749F3327A00DE6
:1011E000611D231F849F600D211D822F762F6A2F82
:1011F00011249F5750409AF0F1F088234AF0EE0FE7
:10120000FF1FBB1F661F771F881F91505040A9F713
:101210009E3F510580F00C9422090C94AF085F3F6B
:10122000E4F3983ED4F3869577956795B795F7954F
:10123000E7959F5FC1F7FE2B880F911D96958795C7
:1012400097F9089597F99F6780E870E060E0089546
:101250009FEF80EC089500240A94161617061806CE
:101260000906089500240A941216130614060506AA
:101270000895092E0394000C11F4882352F0BB0F3B
:1012800040F4BF2B11F460FF04C06F5F7F4F8F4F9E
:101290009F4F089597FB072E16F4009407D077FD13
:1012A00009D00E94AA0907FC05D03EF490958195CB
:1012B0009F4F0895709561957F4F0895A1E21A2E72
:1012C000AA1BBB1BFD010DC0AA1FBB1FEE1FFF1FEA
:1012D000A217B307E407F50720F0A21BB30BE40B3A
:1012E000F50B661F771F881F991F1A9469F7609581
:1012F0007095809590959B01AC01BD01CF0108953B
:10130000052E97FB1EF400940E94970957FD07D005
:101310000E945E0907FC03D04EF40C949709509587
:101320004095309521953F4F4F4F5F4F08959095D1
:101330008095709561957F4F8F4F9F4F08950E94C4
:10134000C409A59F900DB49F900DA49F800D911D81
:1013500011240895AA1BBB1B51E107C0AA1FBB1F84
:10136000A617B70710F0A61BB70B881F991F5A9531
:10137000A9F780959095BC01CD010895EE0FFF1F50
:101380000590F491E02D0994A29FB001B39FC00194
:10139000A39F700D811D1124911DB29F700D811DA1
:1013A0001124911D0895F894FFCFFF54008C005232
:1013B00000080052000800A5000800520008005272
:1013C0000008009300080052000800520008008343
:1013D0000008005200080052000800750008005282
:1013E000000800520008007B00080083000800523B
:1013F00000080052000800A5000800520008005232
:101400000008009300080052000800520008008302
:1014100000080052000800520008007500FEFF524C
:1014200000080052000800A5000800520008005201
:1014300000080093000800520008005200080083D2
:101440000008005200080052000800750008005211
:10145000000800520008007B0008008300080052CA
:1014600000080052000800A50008005200080052C1
:101470000008009300080052000800520008008392
:1014800000080052000800520008007500FEFF52DC
:1014900000080052000800A5000800520008005291
:1014A0000008009300080052000800520008008362
:1014B00000080052000800520008007500080052A1
:1014C000000800520008007B00080083000800525A
:1014D00000080052000800A5000800520008005251
:1014E0000008009300080052000800520008008322
:1014F00000080052000800520008007500FEFF328C
:1015000000C8008801080006010800370110005DCE
:101510000110008801080006010800370110005D75
:101520000110008801080006010800370110005D65
:101530000110008801080006010800370110005D55
:1015400001100088010800060108004A0110005D32
:1015500001100088010800060108004A0110005D22
:1015600001100088010800060108004A0110005D12
:1015700001100088010800060108004A0110005D02
:101580000110008801FCFF0601FCFF370110005D1F
:101590000110008801040006010400370110005DFD
:1015A0000110002601FFFF5D01FCFFE900FCFF3791
:1015B000011000260110005D010400E900FCFF3766
:1015C000011000260110000601FFFF00000000ECE2
:0E15D000006D018D003901BE009C00B00000CE
:107E0000112484B714BE81FFF0D085E080938100F7
:107E100082E08093C00088E18093C10086E0809377
:107E2000C20080E18093C4008EE0C9D0259A86E02C
:107E300020E33CEF91E0309385002093840096BBD3
:107E4000B09BFECF1D9AA8958150A9F7CC24DD24C4
:107E500088248394B5E0AB2EA1E19A2EF3E0BF2EE7
:107E6000A2D0813461F49FD0082FAFD0023811F036
:107E7000013811F484E001C083E08DD089C08234E0
:107E800011F484E103C0853419F485E0A6D080C0E4
:107E9000853579F488D0E82EFF2485D0082F10E0AE
:107EA000102F00270E291F29000F111F8ED06801E7
:107EB0006FC0863521F484E090D080E0DECF843638
:107EC00009F040C070D06FD0082F6DD080E0C81688
:107ED00080E7D80618F4F601B7BEE895C0E0D1E017
:107EE00062D089930C17E1F7F0E0CF16F0E7DF06D8
:107EF00018F0F601B7BEE89568D007B600FCFDCFD4
:107F0000A601A0E0B1E02C9130E011968C91119780
:107F100090E0982F8827822B932B1296FA010C0160
:107F200087BEE89511244E5F5F4FF1E0A038BF0790
:107F300051F7F601A7BEE89507B600FCFDCF97BE46
:107F4000E89526C08437B1F42ED02DD0F82E2BD052
:107F50003CD0F601EF2C8F010F5F1F4F84911BD097
:107F6000EA94F801C1F70894C11CD11CFA94CF0C13
:107F7000D11C0EC0853739F428D08EE10CD085E9AC
:107F80000AD08FE07ACF813511F488E018D01DD067
:107F900080E101D065CF982F8091C00085FFFCCF94
:107FA0009093C60008958091C00087FFFCCF809118
:107FB000C00084FD01C0A8958091C6000895E0E648
:107FC000F0E098E1908380830895EDDF803219F02E
:107FD00088E0F5DFFFCF84E1DECF1F93182FE3DFCA
:107FE0001150E9F7F2DF1F91089580E0E8DFEE27F6
:047FF000FF270994CA
:027FFE00040479
:00000001FF
