:020000040000FA
:100000000C9462000C948A000C948A000C948A0070
:100010000C948A000C948A000C948A000C948A0038
:100020000C948A000C948A000C948A000C948A0028
:100030000C948A000C948A000C948A000C948A0018
:100040000C94A2030C948A000C9470030C944A0341
:100050000C948A000C948A000C948A000C948A00F8
:100060000C948A000C948A000000000024002700F1
:100070002A0000000000250028002B0000000000DE
:1000800023002600290004040404040404040202DA
:100090000202020203030303030301020408102007
:1000A0004080010204081020010204081020000012
:1000B0000008000201000003040700000000000027
:1000C0000000EC0311241FBECFEFD8E0DEBFCDBF90
:1000D00011E0A0E0B1E0EEE6FDE002C005900D9277
:1000E000A033B107D9F722E0A0E3B1E001C01D922F
:1000F000A534B207E1F710E0C2E6D0E004C02197D2
:10010000FE010E94AF06C136D107C9F70E947A04EA
:100110000C94B5060C94000096E0899FD001112440
:10012000AA52BE4F90967C936E935F9791E0919602
:100130009C939197E0914302F09144029091420286
:10014000992339F0309751F0811108C08091F20164
:100150000994309719F05C968C91FACF0895CF925C
:10016000DF92EF92FF920F931F9396E0899FF00129
:100170001124EA52FE4F11A2278D30A12130310502
:1001800051F178F02230310509F451C023303105A6
:1001900009F452C01F910F91FF90EF90DF90CF9024
:1001A00008956623B9F361E070E00E948C002FB7D8
:1001B000F8948091350190913601A0913701B0916A
:1001C00038012FBF80932E0290932F02A09330020C
:1001D000B0933102DFCF9FB7F894C0903501D09033
:1001E0003601E0903701F09038019FBF00912E0258
:1001F00010912F022091300230913102C01AD10AA1
:10020000E20AF30A009140021091410230E020E03E
:100210000C151D052E053F0550F462E070E01F919E
:100220000F91FF90EF90DF90CF900C948C006111B4
:10023000B1CF63E070E0F3CF70E060E0F0CFAF9259
:10024000BF92CF92DF92EF92FF920F931F93CF93C3
:10025000DF936C017B018B01040F151FEB015E0125
:10026000AE18BF08C017D10759F06991D601ED91BA
:10027000FC910190F081E02DC6010995892B79F759
:10028000C501DF91CF911F910F91FF90EF90DF900B
:10029000CF90BF90AF900895FC01538D448D252FD2
:1002A00030E0842F90E0821B930B541710F0CF9610
:1002B000089501970895FC01918D828D981761F042
:1002C000A28DAE0FBF2FB11D5D968C91928D9F5F59
:1002D0009F73928F90E008958FEF9FEF0895FC0138
:1002E000918D828D981731F0828DE80FF11D858DEB
:1002F00090E008958FEF9FEF0895FC01918D228D7E
:10030000892F90E0805C9F4F821B91098F73992702
:10031000089589E391E00E947D0121E0892B09F491
:1003200020E0822F089580E090E0892B29F00E9440
:10033000890181110C9400000895FC01A48DA80F7F
:10034000B92FB11DA35ABF4F2C91848D90E0019617
:100350008F739927848FA689B7892C93A089B18937
:100360008C91837080648C93938D848D981306C0D8
:100370000288F389E02D80818F7D80830895EF923C
:10038000FF920F931F93CF93DF93EC0181E0888F4F
:100390009B8D8C8D98131AC0E889F989808185FF1F
:1003A00015C09FB7F894EE89FF896083E889F989C1
:1003B00080818370806480839FBF81E090E0DF91C3
:1003C000CF911F910F91FF90EF900895F62E0B8D16
:1003D00010E00F5F1F4F0F731127E02E8C8D8E11D1
:1003E0000CC00FB607FCFACFE889F989808185FF38
:1003F000F5CFCE010E949D01F1CFEB8DEC0FFD2FCB
:10040000F11DE35AFF4FF0829FB7F8940B8FEA89F2
:10041000FB8980818062CFCFCF93DF93EC01888D01
:100420008823B9F0AA89BB89E889F9898C9185FD6F
:1004300003C0808186FD0DC00FB607FCF7CF8C91FD
:1004400085FFF2CF808185FFEDCFCE010E949D0117
:10045000E9CFDF91CF910895833081F028F4813086
:1004600099F08230A9F008958730A9F08830C9F05A
:100470008430B1F4809180008F7D03C08091800032
:100480008F7780938000089584B58F7784BD089519
:1004900084B58F7DFBCF8091B0008F778093B000C3
:1004A00008958091B0008F7DF9CFCF93DF93282FEF
:1004B00030E0F901E255FF4F8491F901E656FF4F14
:1004C000D491F901EA57FF4FC491CC23A1F08111D7
:1004D0000E942C02EC2FF0E0EE0FFF1FE458FF4FBC
:1004E000A591B491EC91ED2381E090E009F480E0D6
:1004F000DF91CF91089580E090E0FACF862F0C94A1
:1005000055021F93CF93DF93282F30E0F901E25576
:10051000FF4F8491F901E656FF4FD491F901EA5754
:10052000FF4FC491CC23A9F0162F81110E942C02F9
:10053000EC2FF0E0EE0FFF1FEE58FF4FA591B491A6
:100540008FB7F894EC91111108C0D095DE23DC939D
:100550008FBFDF91CF911F910895DE2BF8CF862FAB
:10056000642F0C948102CF93DF9390E0FC01E65658
:10057000FF4F24918A579F4FFC0184918823C9F033
:1005800090E0880F991FFC01E859FF4FA591B491A5
:10059000FC01EE58FF4FC591D49161110DC09FB77A
:1005A000F8948C91209582238C938881282328832A
:1005B0009FBFDF91CF910895623051F49FB7F894B7
:1005C0003C91822F809583238C93E8812E2BEFCF53
:1005D0008FB7F894EC912E2B2C938FBFEACF862FF8
:1005E000642F0C94B3023FB7F8948091310190913D
:1005F0003201A0913301B091340126B5A89B05C00A
:100600002F3F19F00196A11DB11D3FBFBA2FA92F91
:10061000982F8827BC01CD01620F711D811D911D8E
:1006200042E0660F771F881F991F4A95D1F70895FA
:100630008F929F92AF92BF92CF92DF92EF92FF92F2
:100640004B015C010E94F3026B017C010E94F302EA
:100650006C197D098E099F09683E734081059105DB
:10066000A8F321E0821A9108A108B10888EEC80E0B
:1006700083E0D81EE11CF11C81149104A104B10493
:1006800029F7FF90EF90DF90CF90BF90AF909F90B1
:100690008F9008951F920F920FB60F9211242F93EF
:1006A0003F934F935F936F937F938F939F93AF93FA
:1006B000BF93EF93FF9389E391E00E949D01FF9127
:1006C000EF91BF91AF919F918F917F916F915F91CA
:1006D0004F913F912F910F900FBE0F901F90189543
:1006E0001F920F920FB60F9211242F938F939F9307
:1006F000EF93FF93E0914901F0914A018081E091ED
:100700004F01F091500182FD1BC0908180915201F8
:100710008F5F8F7320915301821741F0E091520156
:10072000F0E0E75CFE4F958F80935201FF91EF91CF
:100730009F918F912F910F900FBE0F901F90189542
:100740008081F4CF1F920F920FB60F9211242F9336
:100750003F938F939F93AF93BF9380913501909177
:100760003601A0913701B09138013091300123E07A
:10077000230F2D3758F50196A11DB11D209330018F
:100780008093350190933601A0933701B0933801DF
:100790008091310190913201A0913301B0913401E7
:1007A0000196A11DB11D8093310190933201A09358
:1007B0003301B0933401BF91AF919F918F913F91DD
:1007C0002F910F900FBE0F901F90189526E8230FC2
:1007D0000296A11DB11DD2CF10923C0110923B0197
:1007E00088EE93E0A0E0B0E080933D0190933E015D
:1007F000A0933F01B093400187E191E090933A01CB
:100800008093390185EC90E09093460180934501F7
:1008100084EC90E0909348018093470180EC90E055
:1008200090934A018093490181EC90E090934C01B0
:1008300080934B0182EC90E090934E0180934D01A8
:1008400086EC90E09093500180934F0110925201FA
:100850001092530110925401109255011092D80138
:100860001092DC011092DB011092DD0189E291E02F
:100870009093D7018093D601E2EFF1E010821482C9
:1008800013821582369682E0EE32F807B9F783E0DC
:1008900091E0909339028093380280E091E0909348
:1008A0003B0280933A0284E080933C0283E0809391
:1008B0003D0287E091E090933702809336028AE010
:1008C00090E090933F0280933E0284EF91E09093FA
:1008D000410280934002109244021092430210920F
:1008E00032021092330210923402109235021092AA
:1008F00042020895789484B5826084BD84B5816095
:1009000084BD85B5826085BD85B5816085BD8091DA
:100910006E00816080936E00109281008091810052
:10092000826080938100809181008160809381004A
:10093000809180008160809380008091B10084600C
:100940008093B1008091B00081608093B00080916D
:100950007A00846080937A0080917A00826080932C
:100960007A0080917A00816080937A0080917A0089
:10097000806880937A001092C100E0914901F09163
:100980004A0182E08083E0914501F09146011082A6
:10099000E0914701F09148018FEC80831092510162
:1009A000E0914D01F0914E0186E08083E0914B0192
:1009B000F0914C01808180618083E0914B01F09146
:1009C0004C01808188608083E0914B01F0914C0163
:1009D000808180688083E0914B01F0914C0180819F
:1009E0008F7D808360E08AE00E94B30260E089E04E
:1009F0000E94B30260E088E00E94B30260E087E0FA
:100A00000E94B30261E085E00E94B30261E086E0EB
:100A10000E94B30261E084E00E94B302812C912C19
:100A20005401839444244A94542C50E0652E50E0A1
:100A3000752E51E0509342028FB7F89440913501E2
:100A40005091360160913701709138018FBF8091CC
:100A5000320290913302A0913402B0913502481BCA
:100A6000590B6A0B7B0B80913E0290913F02B0E0E4
:100A7000A0E084179507A607B70708F02BC1C0E0D0
:100A800080913C02C81760F4E0913802F09139027D
:100A9000EC0FF11D62E080810E94B302CF5FF0CFC6
:100AA000312C80913D02381608F05FC0032D10E014
:100AB000E0913A02F0913B02E00FF11F61E080818A
:100AC0000E94B302E0913A02F0913B02E00FF11F65
:100AD00060E080810E948102D501C401032C04C022
:100AE000880F991FAA1FBB1F0A94D2F76C017C01C3
:100AF000E094F094212C80913C022816F8F4C22D49
:100B0000D0E0E0913802F0913902EC0FFD1F8081B6
:100B10000E9455022496CC0FDD1FCA52DE4F892B4E
:100B200041F4888199818C299D2999838883239414
:100B3000E2CF888199818E219F21F7CFE0913A02FF
:100B4000F0913B02E00FF11F61E080810E94810281
:100B500080913A0290913B02080F191F60E0F80162
:100B600080810E94B30233949CCF06ED11E0E8012E
:100B70008F8D98A1892B21F41C8E5E8E4D8E19A22B
:100B80002696F2E0C231DF0799F7D12C80913C0222
:100B9000D81608F053C0C12CED2CF12CEE0CFF1C24
:100BA000C70182529E4F7C0120913D02C21608F07F
:100BB00043C0F701608171810C2C02C07695679566
:100BC0000A94E2F7D29E900111242C0D311DE6ED1E
:100BD000F1E080E0458D568D2417350709F4BDC03E
:100BE0008F5F36968A30B1F760FF24C0E6EDF1E002
:100BF00090E080E0448D411118C0E0913602F09100
:100C00003702E20FF31F408156E0589FF001599FD1
:100C1000F00D1124EA52FE4F448F368F258F10A21B
:100C2000178E61E00E94AF0005C0019636968A30AB
:100C3000910501F7C394B8CFD394A8CF80E0F80111
:100C400091A19111892F0A5F1F4FC017D107B9F7E2
:100C50009FB7F8944091350150913601609137016A
:100C6000709138019FBF40933202509333026093DA
:100C7000340270933502882369F18091F70188234B
:100C800049F18091F5019091F601019719F5C09114
:100C9000F201CA306CF510E000E00C2E000CDD0B08
:100CA0000C171D07CCF461E084E00E9481026CE225
:100CB00071E080E090E00E94180360E084E00E9410
:100CC00081026CE271E080E090E00E9418030F5F07
:100CD0001F4FE6CF109242026114710409F4A9CEAD
:100CE0000E948901882309F4A4CE0E940000A1CEAD
:100CF000CA3069F461E085E00E94810264EF71E02E
:100D000080E090E00E94180360E085E00EC0CB30E8
:100D100079F461E086E00E94810264EF71E080E096
:100D200090E00E94180360E086E00E948102D4CF28
:100D3000CC3091F661E084E00E94810261E085E0C0
:100D40000E94810264EF71E080E090E00E9418034D
:100D500060E084E00E948102D7CF617063CFEE0F24
:100D6000FF1F0590F491E02D0994F894FFCF0B0C30
:100D70000D0A0908070102030405060708090A0C01
:100D80000B00000000BF011F014C010C027D015B44
:0E0D9000016F0100000000EF02AF027E0200C2
:107E0000112484B714BE81FFF0D085E080938100F7
:107E100082E08093C00088E18093C10086E0809377
:107E2000C20080E18093C4008EE0C9D0259A86E02C
:107E300020E33CEF91E0309385002093840096BBD3
:107E4000B09BFECF1D9AA8958150A9F7CC24DD24C4
:107E500088248394B5E0AB2EA1E19A2EF3E0BF2EE7
:107E6000A2D0813461F49FD0082FAFD0023811F036
:107E7000013811F484E001C083E08DD089C08234E0
:107E800011F484E103C0853419F485E0A6D080C0E4
:107E9000853579F488D0E82EFF2485D0082F10E0AE
:107EA000102F00270E291F29000F111F8ED06801E7
:107EB0006FC0863521F484E090D080E0DECF843638
:107EC00009F040C070D06FD0082F6DD080E0C81688
:107ED00080E7D80618F4F601B7BEE895C0E0D1E017
:107EE00062D089930C17E1F7F0E0CF16F0E7DF06D8
:107EF00018F0F601B7BEE89568D007B600FCFDCFD4
:107F0000A601A0E0B1E02C9130E011968C91119780
:107F100090E0982F8827822B932B1296FA010C0160
:107F200087BEE89511244E5F5F4FF1E0A038BF0790
:107F300051F7F601A7BEE89507B600FCFDCF97BE46
:107F4000E89526C08437B1F42ED02DD0F82E2BD052
:107F50003CD0F601EF2C8F010F5F1F4F84911BD097
:107F6000EA94F801C1F70894C11CD11CFA94CF0C13
:107F7000D11C0EC0853739F428D08EE10CD085E9AC
:107F80000AD08FE07ACF813511F488E018D01DD067
:107F900080E101D065CF982F8091C00085FFFCCF94
:107FA0009093C60008958091C00087FFFCCF809118
:107FB000C00084FD01C0A8958091C6000895E0E648
:107FC000F0E098E1908380830895EDDF803219F02E
:107FD00088E0F5DFFFCF84E1DECF1F93182FE3DFCA
:107FE0001150E9F7F2DF1F91089580E0E8DFEE27F6
:047FF000FF270994CA
:027FFE00040479
:00000001FF
